:100000000C945A000C9477000C9477000C947700B1
:100010000C9477000C9477000C9477000C94770084
:100020000C9477000C9477000C9477000C94B70034
:100030000C947C010C9477000C9479000C9477005C
:100040000C9477000C9477000C9477000C94D303F5
:100050000C9477000C9477000C9477000C94770044
:100060000C9477000C9477000C9477000C94770034
:100070000C9477000C9477000C9477000C94770024
:100080000C9477000C9477000C9477000C94770014
:100090000C9477000C9477000C9477000C94770004
:1000A0000C9477000C9477000C9477000C947700F4
:1000B0000C94770011241FBECFEFD8E0DEBFCDBF78
:1000C00011E0A0E0B1E0E2EFFEE002C005900D9289
:1000D000A235B107D9F721E0A2E5B1E001C01D9238
:1000E000A93FB207E1F70E94C5010C9477070C9471
:1000F00000001F920F920FB60F9211248F939F93BF
:100100008091020190910301181619064CF4809118
:1001100002019091030101979093030180930201E2
:100120008091000190910101181619064CF48091FC
:1001300000019091010101979093010180930001CA
:1001400080915A0190915B01181619064CF4809128
:100150005A0190915B01019790935B0180935A0142
:100160009F918F910F900FBE0F901F9018951F9227
:100170000F920FB60F9211248F939F93809152018B
:10018000909153018230910509F460C02CF40097DE
:1001900069F0019759F1A9C08430910509F48BC029
:1001A0000CF46EC0059709F49BC09FC08091540168
:1001B00090915501892B81F48091580190915901BA
:1001C000892B51F48091560190915701892B21F48C
:1001D0008BB180638BB989C080915201909153019A
:1001E000019690935301809352017FC080915401F6
:1001F00090915501893791057CF080915201909141
:1002000053010196909353018093520184EC99E03D
:1002100090935B0180935A0180915801909159010C
:100220008536910534F48091560190915701892BC0
:1002300009F05D9A8091580190915901893C91058E
:100240000CF45C9A8EB18E608EB94FC080915A01C9
:1002500090915B0105977CF480915201909153013C
:100260000196909353018093520188EB9BE0909309
:100270005B0180935A015F9A5D985C98739835C0D2
:1002800080915A0190915B0105977CF48091520115
:10029000909153010196909353018093520184EC05
:1002A00099E090935B0180935A015D9A5F985E9804
:1002B0005C9872981AC080915A0190915B010597E1
:1002C0004CF4809152019091530101969093530107
:1002D000809352015F985E9A5D985C98739A05C00E
:1002E0005F985E985D985C9871989F918F910F9040
:1002F0000FBE0F901F9018951F920F920FB60F927E
:1003000011245F985E985D985C980F900FBE0F90D7
:100310001F90189584B5826084BD89EF87BD82E007
:1003200080936E0083E085BD0895E0E8F0E0808171
:1003300083608083A1E8B0E08C9188618C938FEC1E
:1003400097E090938900809388008C9182608C93D1
:1003500088EE93E090938B0080938A00AFE6B0E044
:100360008C9182608C938C9184608C93808180626C
:100370008083089588E284B98DE58CBD08958EBD93
:100380000DB407FEFDCF8EB5089588EF8AB98EE0D3
:100390008DB978940E94BA0180E00E941E040E94E8
:1003A0008A010E94950182E191E00E947F0488EE1B
:1003B00093E090938B0080938A0006E211E00F2E69
:1003C000FBE3EF2EF1E0FF2EF02D0F2EF4E6CF2E03
:1003D000D12CF02D80910201909103010697D4F762
:1003E0008EEA0E94BF011F928F931F930F930E946A
:1003F000690481EC0E94BF011F928F931F930F939A
:100400000E94690480E20E94BF011F928F931F9394
:100410000F930E94690482E00E94BF011F928F9394
:100420001F930F930E94690481E00E94BF011F92F5
:100430008F931F930F930E94690481E00E94BF0174
:100440001F928F931F930F930E9469048DB79EB7DD
:1004500048960FB6F8949EBF0FBE8DBF8824839434
:10046000912CC0E0D0E004C021969FEF891A990A30
:1004700080E00E94BF01A82EB12C1F928F931F9382
:100480000F930E9469040F900F900F900F90C2304D
:10049000D10529F4B0925901A092580110C0C3307F
:1004A000D10529F4B0925701A092560108C0C4307A
:1004B000D10529F4B0925501A0925401D5CF87E01F
:1004C000881691048CF28AE291E00E947F04809168
:1004D0005201909153019F938F93FF92EF920E944C
:1004E0006904D0920301C09202010F900F900F9007
:1004F0000F9070CFCF93C82F873069F42091F70108
:100500003091F80147E050E061E070E089E491E06B
:100510000E9435042BC08A3019F48DE00E947A02C3
:100520008091AE018823D9F08091B1019091B20100
:10053000FC01ED54FE4FC08301968F739078992390
:1005400024F40197806C9F6F01969093B201809381
:10055000B101E1ECF0E080818062808307C0E0ECD3
:10056000F0E0808185FFFDCFC093C60080E090E081
:10057000CF9108956F927F928F929F92AF92BF9288
:10058000CF92DF92EF92FF920F931F93CF93DF935F
:100590002091AC013091AD01232B09F0DAC08C0120
:1005A0000F2EFCE58F2EF1E09F2EF02DC0ECD0E059
:1005B0000F2EF6ECCF2ED12CF02D54010F2EFBE593
:1005C0006F2EF1E07F2EF02D88818823ECF7888153
:1005D00084FDD2C0888183FDD2C0F60180818D3038
:1005E00011F08A3069F48AE0F4018083B8010E9436
:1005F0007A028CE591E09093AD018093AC01A9C0A3
:10060000893039F090EE980F9F3520F0803AB8F09D
:1006100001C080E2FBEA8F16F1E09F0629F4B801E1
:1006200087E00E947A02D0CF74019FEFE91AF90A9D
:10063000F4018083B8010E947A024701C5CF82315C
:10064000D1F130F4833009F49DC08830E9F0BCCF9B
:10065000873129F08F37C1F0853179F0B5CFFCE5CE
:100660008F16F1E09F0609F008F4AECFF401319740
:100670008081803209F052C0A7CF8CE5881681E0D6
:10068000980609F098F5A0CF9CE5891691E09906A7
:1006900009F008F499CFB80188E00E947A02B80105
:1006A00080E20E947A02B80188E00E947A02E1E0CA
:1006B0008E1A910889CFB8018DE00E947A02FCE57C
:1006C0008F16F1E09F0609F008F47ECF0F2EFCE5AF
:1006D000EF2EF1E0FF2EF02DB801F70181917F019F
:1006E0000E947A028E149F04B9F76ECFB80188E099
:1006F0000E947A02B80180E20E947A02B80188E082
:100700000E947A02F1E08F1A91088CE5881681E048
:10071000980661F7F30131964F0156CF7401F1E06D
:10072000EF1AF108B80188E00E947A02B80180E26D
:100730000E947A02B80188E00E947A024701EA1416
:10074000FB0409F441CFF70182917F01803251F718
:100750003BCFE091AC01F091AD01CF0101969093B8
:10076000AD018093AC0180818A3021F41092AD01FB
:100770001092AC0190E008C08EEF9FEF05C08FEFA4
:100780009FEF02C08FEF9FEFDF91CF911F910F91ED
:10079000FF90EF90DF90CF90BF90AF909F908F90A1
:1007A0007F906F9008951F920F920FB60F921124B1
:1007B0002F933F938F939F93EF93FF932091AF01DC
:1007C0003091B0018091B1019091B20128173907A1
:1007D00051F1E091AF01F091B001ED54FE4F8081F5
:1007E0008093C6008091AF019091B00101968F7304
:1007F0009078992324F40197806C9F6F01969093D1
:10080000B0018093AF012091AF013091B001809190
:10081000B1019091B2012817390729F4E1ECF0E019
:1008200080818F7D8083FF91EF919F918F913F9188
:100830002F910F900FBE0F901F90189597E69093F1
:10084000C40098E19093C100E3EFF1E024E031E0CF
:10085000338322833183208335832483882321F0CB
:1008600081E08093AE0178940895A0E0B0E0EBE3DE
:10087000F4E00C9446075B014A017901D901139613
:100880002C9121FF1DC0C0E0D0E0C815D905D9F0DA
:100890008C016C01CA0CDB1CC8010C151D0571F024
:1008A0000F5F1F4FD7011896ED91FC911997B70173
:1008B000DC018C910995892B79F305C02196E5CF50
:1008C00080E090E001C0CE01CDB7DEB7ECE00C9443
:1008D0006207A0E0B0E0EFE6F4E00C945007AE0150
:1008E0004B5F5F4FFA0161917191AF018091F5010A
:1008F0009091F6010E94AF04E2E00C946C070F9314
:100900001F93CF93DF93E091F501F091F6012381DE
:1009100021FF1BC08C01D0E0C0E0F80181918F0164
:100920006091F5017091F601DB011896ED91FC9153
:100930001997882331F00995892B79F3DFEFCFEFF1
:10094000ECCF8AE00995892B19F08FEF9FEF02C059
:100950008D2F9C2FDF91CF911F910F910895ABE0C8
:10096000B0E0E5EBF4E00C9440076C017B018A01F8
:10097000FC0117821682838181FFCCC1CE010196D2
:100980003C01F6019381F70193FD859193FF8191DD
:100990007F01882309F4BAC1853239F493FD85912A
:1009A00093FF81917F01853229F4B60190E00E9486
:1009B000A606E7CF912C212C312CFFE1F315D8F0BE
:1009C0008B3279F038F4803279F08332A1F4232D20
:1009D00020611DC08D3261F0803369F4232D2160C8
:1009E00016C0832D8260382EE32DE4603E2E2AC08F
:1009F000F32DF8601DC037FC2DC020ED280F2A30E4
:100A000040F08E32B9F436FC81C1232D2064322EA1
:100A100019C036FE06C08AE0989E200D1124922E41
:100A200011C0EAE02E9E200D1124222EF32DF0623B
:100A30003F2E08C08C3621F4832D8068382E02C0EA
:100A4000883641F4F70193FD859193FF81917F01F1
:100A50008111B3CF982F9F7D9554933028F40C5F6C
:100A60001F4F9FE399830DC0833631F0833771F0B8
:100A7000833509F059C021C0F801808189830E5F58
:100A80001F4F88248394912C530113C02801F2E056
:100A90004F0E511CF801A080B18036FE03C0692DB5
:100AA00070E002C06FEF7FEFC5010E949B064C0112
:100AB0008201F32DFF773F2E16C0280122E0420E5F
:100AC000511CF801A080B18036FE03C0692D70E092
:100AD00002C06FEF7FEFC5010E9490064C01F32D1D
:100AE000F0683F2E820133FC1BC0822D90E08816F7
:100AF0009906B0F4B60180E290E00E94A6062A941E
:100B0000F4CFF50137FC859137FE81915F01B60185
:100B100090E00E94A60621102A9421E0821A9108F2
:100B20008114910471F7E8C0843611F0893641F5DB
:100B3000F80137FE07C060817181828193810C5F6B
:100B40001F4F08C060817181072E000C880B990B24
:100B50000E5F1F4FF32DFF763F2E97FF09C0909534
:100B60008095709561957F4F8F4F9F4FF0683F2E16
:100B70002AE030E0A3010E94E206882E861845C0D4
:100B8000853731F4232D2F7EB22E2AE030E025C0A8
:100B9000932D997FB92E8F36C1F018F4883579F0EE
:100BA000B5C0803719F0883721F0B0C0E92FE06177
:100BB000BE2EB4FE0DC0FB2DF460BF2E09C034FE66
:100BC0000AC0292F2660B22E06C028E030E005C0FA
:100BD00020E130E002C020E132E0F801B7FE07C0BA
:100BE00060817181828193810C5F1F4F06C060819B
:100BF000718180E090E00E5F1F4FA3010E94E2062A
:100C0000882E8618FB2DFF773F2E36FE0DC0232D34
:100C10002E7FA22E891458F434FE0BC032FC09C07A
:100C2000832D8E7EA82E05C0B82CA32C03C0B82C13
:100C300001C0B92CA4FE0FC0FE01E80DF11D80819A
:100C4000803321F49A2D997EA92E09C0A2FE06C0F8
:100C5000B394B39404C08A2D867809F0B394A3FCAE
:100C600011C0A0FE06C0B21488F4280C922C9B1868
:100C70000EC0B21460F4B60180E290E00E94A606B5
:100C8000B394F7CFB21418F42B1802C0982C212C6F
:100C9000A4FE10C0B60180E390E00E94A606A2FE6A
:100CA00017C0A1FC03C088E790E002C088E590E08F
:100CB000B6010CC08A2D867859F0A1FE02C08BE2E5
:100CC00001C080E2A7FC8DE2B60190E00E94A6067A
:100CD000891438F4B60180E390E00E94A6069A9445
:100CE000F7CF8A94F301E80DF11D8081B60190E001
:100CF0000E94A6068110F5CF222009F442CEB6014B
:100D000080E290E00E94A6062A94F6CFF601868142
:100D1000978102C08FEF9FEF2B96E2E10C945C0766
:100D2000FC010590615070400110D8F780959095B6
:100D30008E0F9F1F0895FC016150704001900110BB
:100D4000D8F7809590958E0F9F1F08950F931F934E
:100D5000CF93DF93FB01238121FD03C08FEF9FEF32
:100D60002CC022FF16C0468157812481358142174D
:100D7000530744F4A081B1819D012F5F3F4F318320
:100D800020838C93268137812F5F3F4F37832683C3
:100D900014C08B01EC01FB010084F185E02D099565
:100DA000892BE1F6D80116968D919C9117970196A3
:100DB00017969C938E931697CE01DF91CF911F913A
:100DC0000F910895FA01AA27283051F1203181F1BD
:100DD000E8946F936E7F6E5F7F4F8F4F9F4FAF4F43
:100DE000B1E03ED0B4E03CD0670F781F891F9A1F56
:100DF000A11D680F791F8A1F911DA11D6A0F711D0A
:100E0000811D911DA11D20D009F468943F912AE015
:100E1000269F11243019305D3193DEF6CF010895FD
:100E2000462F4770405D4193B3E00FD0C9F7F6CF2E
:100E3000462F4F70405D4A3318F0495D31FD4052F6
:100E4000419302D0A9F7EACFB4E0A695979587958C
:100E500077956795BA95C9F700976105710508956B
:100E60009B01AC010A2E0694579547953795279517
:100E7000BA95C9F7620F731F841F951FA01D0895AF
:100E80002F923F924F925F926F927F928F929F929A
:100E9000AF92BF92CF92DF92EF92FF920F931F9388
:100EA000CF93DF93CDB7DEB7CA1BDB0B0FB6F89439
:100EB000DEBF0FBECDBF09942A88398848885F8479
:100EC0006E847D848C849B84AA84B984C884DF80EA
:100ED000EE80FD800C811B81AA81B981CE0FD11DCE
:100EE0000FB6F894DEBF0FBECDBFED010895F894A4
:020EF000FFCF32
:100EF2006400881300000003000000007A02BA02B6
:100F020000000A70726F6772616D206973207275DA
:100F12006E6E696E670025640A002D2D2D726F7545
:100F22006E64206F7665722D2D2D00626F7473745E
:100F32006174653A2025780A002A72696E672A0A66
:020F42000000AD
:00000001FF
